:100000000C9434000C9449000C9449000C94490061
:100010000C9449000C9449000C9449000C9449003C
:100020000C9449000C9449000C9449000C9449002C
:100030000C9449000C9449000C9449000C9449001C
:100040000C9449000C9449000C9449000C9449000C
:100050000C9449000C9449000C9449000C944900FC
:100060000C9449000C94490011241FBECFEFD8E036
:10007000DEBFCDBF11E0A0E0B1E0E0E8F4E002C0F7
:1000800005900D92A830B107D9F70E9404020C9494
:100090003E020C9400000E94E5010E94BC000C94FA
:1000A0007700FC019081933749F01CF49237D9F026
:1000B0000895983751F0993779F0089582818636FE
:1000C00011F40C94E5000C94FC008281863611F446
:1000D0000C942E010C9463018281863611F40C94E9
:1000E00094010C94EE010E94C9010C949D001092A1
:1000F000C50087E68093C40088E18093C10086E054
:100100008093C20008959091C00095FFFCCF80932A
:10011000C60008958091C00087FFFCCF8091C60083
:100120000895CF93DF93EC018991811103C0DF9192
:10013000CF9108950E948300F7CFE8E8F0E087EDC3
:1001400090E0918380832FEF39E648E121503040E1
:100150004040E1F700C0000023E631E03183208316
:100160002FEF39E648E1215030404040E1F700C030
:100170000000918380830895E0E8F0E08081826A46
:100180008083E1E8F0E080818B61808387E893E100
:10019000909387008093860084B1876084B90C9423
:1001A0009D00009739F487ED90E09093890080934B
:1001B000880008958130910519F483E691E0F5CF28
:1001C0000297B9F788E092E0F0CF80918800909193
:1001D00089000A9690938900809388008091880016
:1001E000909189008830924030F088E092E09093BE
:1001F00089008093880008958091880090918900FB
:100200000A9790938900809388008091880090914C
:100210008900883D910530F487ED90E09093890046
:100220008093880008958091020188B98FE79BEB45
:100230000197F1F700C0000018B880910201909179
:1002400003018830910539F0880F991F90930301BD
:1002500080930201089581E090E0F8CFCF93DF937F
:100260008091060190910701089779F0CCE4D0E0E5
:100270000E9413012197E1F78091060190910701F7
:1002800001969093070180930601DF91CF91089525
:100290008091020188B98FE79BEB0197F1F700C0CD
:1002A000000018B8809102019091030181309105FE
:1002B00039F09595879590930301809302010895F5
:1002C00088E090E0F8CFCF93DF93CCE4D0E0359B8B
:1002D00004C00E9448012197D1F7809106019091B6
:1002E000070101979093070180930601DF91CF9159
:1002F0000895809100018BB98FE79BEB0197F1F78F
:1003000000C000001BB88091000190910101803174
:10031000910539F09595879590930101809300019F
:10032000089580E890E0F8CFCF93DF9380910401A7
:1003300090910501089779F0CCE3D0E00E94790113
:100340002197E1F780910401909105010196909326
:10035000050180930401DF91CF9108958091000100
:100360008BB98FE79BEB0197F1F700C000001BB83A
:1003700080910001909101018038910539F0880F3A
:10038000991F9093010180930001089580E190E00E
:10039000F8CF2FEF83ED90E3215080409040E1F7BC
:1003A00000C000000E9413010E9448010E947901D0
:1003B0000E94AE01359903C0349904C008950E948B
:1003C0004801F8CF0E94AE01F7CF8FE087B918B887
:1003D00088E78AB98BB18BB90C94C901CF93DF93AD
:1003E000CCE3D0E0349B04C00E94AE012197D1F74A
:1003F00080910401909105010197909305018093EC
:100400000401DF91CF910895CF93DF93CDB7DEB78D
:100410002A970FB6F894DEBF0FBECDBF0E944B00E7
:100420008EE30E9483008E010F5F1F4F8AE0D82E5B
:100430000E948A0078018B33D9F49701201B310B7D
:100440002A303105A9F0C8010E945100F8012D2D74
:1004500011922A95E9F78FEF90E7E2E08150904002
:10046000E040E1F700C000008EE30E948300E0CF8F
:10047000F70181937F010E948A00DDCFF894FFCFBE
:08048000100001000100010061
:00000001FF
